{
  "contractName": "TimeSensitiveSmartContract",
  "abi": [
    {
      "inputs": [
        {
          "internalType": "uint256",
          "name": "duration",
          "type": "uint256"
        }
      ],
      "payable": false,
      "stateMutability": "nonpayable",
      "type": "constructor"
    },
    {
      "constant": true,
      "inputs": [],
      "name": "constraintIntervalDuration",
      "outputs": [
        {
          "internalType": "uint256",
          "name": "",
          "type": "uint256"
        }
      ],
      "payable": false,
      "stateMutability": "view",
      "type": "function"
    },
    {
      "constant": false,
      "inputs": [],
      "name": "initSmartContractState",
      "outputs": [],
      "payable": false,
      "stateMutability": "nonpayable",
      "type": "function"
    },
    {
      "constant": true,
      "inputs": [
        {
          "internalType": "uint256",
          "name": "transactionId",
          "type": "uint256"
        }
      ],
      "name": "getTransaction",
      "outputs": [
        {
          "internalType": "int256",
          "name": "",
          "type": "int256"
        },
        {
          "internalType": "uint256",
          "name": "",
          "type": "uint256"
        }
      ],
      "payable": false,
      "stateMutability": "view",
      "type": "function"
    },
    {
      "constant": false,
      "inputs": [
        {
          "internalType": "uint256",
          "name": "startTime",
          "type": "uint256"
        }
      ],
      "name": "setConstraintIntervalStartTime",
      "outputs": [],
      "payable": false,
      "stateMutability": "nonpayable",
      "type": "function"
    },
    {
      "constant": false,
      "inputs": [
        {
          "internalType": "uint256",
          "name": "duration",
          "type": "uint256"
        }
      ],
      "name": "setConstraintIntervalDuration",
      "outputs": [],
      "payable": false,
      "stateMutability": "nonpayable",
      "type": "function"
    },
    {
      "constant": false,
      "inputs": [
        {
          "internalType": "uint256",
          "name": "transactionId",
          "type": "uint256"
        }
      ],
      "name": "constraintFunction",
      "outputs": [],
      "payable": false,
      "stateMutability": "nonpayable",
      "type": "function"
    }
  ],
  "bytecode": "0x6080604052600060025534801561001557600080fd5b5060405161035b38038061035b8339818101604052602081101561003857600080fd5b810190808051906020019092919050505080600181905550506102fb806100606000396000f3fe608060405234801561001057600080fd5b50600436106100625760003560e01c806333ea3dc8146100675780633c43c5e3146100b057806387d34c1d146100ce578063c2a8508d146100fc578063d15b491714610106578063d90fd11f14610134575b600080fd5b6100936004803603602081101561007d57600080fd5b8101908080359060200190929190505050610162565b604051808381526020018281526020019250505060405180910390f35b6100b8610190565b6040518082815260200191505060405180910390f35b6100fa600480360360208110156100e457600080fd5b8101908080359060200190929190505050610196565b005b6101046101aa565b005b6101326004803603602081101561011c57600080fd5b81019080803590602001909291905050506101f8565b005b6101606004803603602081101561014a57600080fd5b81019080803590602001909291905050506102a2565b005b6000806000600360008581526020019081526020016000209050806000015481600101549250925050915091565b60015481565b80600154146101a757806001819055505b50565b60008090505b6002548110156101ed57600360008281526020019081526020016000206000808201600090556001820160009055505080806001019150506101b0565b600060028190555050565b6102006102ac565b600054421180156102175750600154600054014211155b1561022c576001816000018181525050610257565b7fffffffffffffffffffffffffffffffffffffffffffffffffffffffffffffffff8160000181815250505b42816020018181525050806003600084815260200190815260200160002060008201518160000155602082015181600101559050506002600081548092919060010191905055505050565b8060008190555050565b60405180604001604052806000815260200160008152509056fea265627a7a72315820626a4a4f457c615ea79866bb79e4210f37c25d2a369ea2cb8194f91c7f6a1bb264736f6c63430005100032",
  "source": "// SPDX-License-Identifier: GPL-3.0\npragma solidity >=0.4.16 <0.8.0;\n\ncontract TimeSensitiveSmartContract {\n    uint256 constraintIntervalStartTime;\n    uint256 public constraintIntervalDuration;\n    uint256 transactionCount = 0;\n\n    struct Transaction {\n        int256 accepted;\n        uint256 blockTimestamp;\n    }\n\n    mapping(uint256 => Transaction) transactions;\n\n    constructor(uint256 duration) public {\n        constraintIntervalDuration = duration;\n    }\n\n    function initSmartContractState() public {\n        uint256 i;\n        for (i = 0; i < transactionCount; i++) {\n            delete transactions[i];\n        }\n        transactionCount = 0;\n    }\n\n    function getTransaction(uint256 transactionId)\n        public\n        view\n        returns (int256, uint256)\n    {\n        Transaction storage transaction = transactions[transactionId];\n        return (transaction.accepted, transaction.blockTimestamp);\n    }\n\n    function setConstraintIntervalStartTime(uint256 startTime) public {\n        constraintIntervalStartTime = startTime;\n    }\n\n    function setConstraintIntervalDuration(uint256 duration) public {\n        if (constraintIntervalDuration != duration) {\n            constraintIntervalDuration = duration;\n        }\n    }\n\n    function constraintFunction(uint256 transactionId) public {\n        Transaction memory transaction;\n        if (\n            block.timestamp > constraintIntervalStartTime &&\n            block.timestamp <=\n            constraintIntervalStartTime + constraintIntervalDuration\n        ) {\n            transaction.accepted = 1;\n        } else {\n            transaction.accepted = -1;\n        }\n        transaction.blockTimestamp = block.timestamp;\n        transactions[transactionId] = transaction;\n        transactionCount++;\n    }\n}\n",
  "sourcePath": "/home/marcel/Documents/Execution-Accuracy-Testbed/contracts/TimeSensitiveSmartContract.sol",
  "compiler": {
    "name": "solc",
    "version": "0.5.16+commit.9c3226ce.Emscripten.clang"
  },
  "schemaVersion": "3.4.4",
  "updatedAt": "2022-07-05T17:47:23.501Z",
  "networkType": "ethereum",
  "devdoc": {
    "methods": {}
  },
  "userdoc": {
    "methods": {}
  }
}